009876543212018090520180904201809040017778PAGSG01A                    002.01                                                                                                                                                                                                                                                                                                                                                                                                                                                                      
1098765432120180904163859201809041639040101  00006C9FCB064523BC3444868D4BA89A1050114171          00000001148000000000011079M101 102018100400000000000000000000000000000000011480000000000000000000000004018000000000000000000000000000000000000000000000011078201  03MASTERCARD                    MD0003                                1050114171    52470369960659931050114171                                                                                                                                                                 
1098765432120180904163859201809041639040101  00006C9FCB064523BC3444868D4BA89A1050114171          00000001148000000000011079M102 102018110400000000000000000000000000000000011480000000000000000000000004018000000000000000000000000000000000000000000000011078201  03MASTERCARD                    MD0003                                1050114171    52470369960659931050114171                                                                                                                                                                 
1098765432120180904163859201809041639040101  00006C9FCB064523BC3444868D4BA89A1050114171          00000001148000000000011078M103 102018120400000000000000000000000000000000011480000000000000000000000004018000000000000000000000000000000000000000000000011078201  03MASTERCARD                    MD0003                                1050114171    52470369960659931050114171                                                                                                                                                                 
1098765432120180904163859201809041639040101  00006C9FCB064523BC3444868D4BA89A1050114171          00000001148000000000011078M104 102019010400000000000000000000000000000000011480000000000000000000000004018000000000000000000000000000000000000000000000011078201  03MASTERCARD                    MD0003                                1050114171    52470369960659931050114171                                                                                                                                                                 
1098765432120180904163859201809041639040101  00006C9FCB064523BC3444868D4BA89A1050114171          00000001148000000000011078M105 102019020400000000000000000000000000000000011480000000000000000000000004018000000000000000000000000000000000000000000000011078201  03MASTERCARD                    MD0003                                1050114171    52470369960659931050114171                                                                                                                                                                 
1098765432120180904163859201809041639040101  00006C9FCB064523BC3444868D4BA89A1050114171          00000001148000000000011078M106 102019030400000000000000000000000000000000011480000000000000000000000004018000000000000000000000000000000000000000000000011078201  03MASTERCARD                    MD0003                                1050114171    52470369960659931050114171                                                                                                                                                                 
1098765432120180904163859201809041639040101  00006C9FCB064523BC3444868D4BA89A1050114171          00000001148000000000011078M107 102019040400000000000000000000000000000000011480000000000000000000000004018000000000000000000000000000000000000000000000011078201  03MASTERCARD                    MD0003                                1050114171    52470369960659931050114171                                                                                                                                                                 
1098765432120180904163859201809041639040101  00006C9FCB064523BC3444868D4BA89A1050114171          00000001148000000000011078M108 102019050400000000000000000000000000000000011480000000000000000000000004018000000000000000000000000000000000000000000000011078201  03MASTERCARD                    MD0003                                1050114171    52470369960659931050114171                                                                                                                                                                 
1098765432120180904163859201809041639040101  00006C9FCB064523BC3444868D4BA89A1050114171          00000001148000000000011078M109 102019060400000000000000000000000000000000011480000000000000000000000004018000000000000000000000000000000000000000000000011078201  03MASTERCARD                    MD0003                                1050114171    52470369960659931050114171                                                                                                                                                                 
1098765432120180904163859201809041639040101  00006C9FCB064523BC3444868D4BA89A1050114171          00000001148000000000011078M1010102019070400000000000000000000000000000000011480000000000000000000000004018000000000000000000000000000000000000000000000011078201  03MASTERCARD                    MD0003                                1050114171    52470369960659931050114171                                                                                                                                                                 
900000000010                                                                                                                                                                                                                                                                                                                                                                                                                                                                                                                                      
