009876543212018103020181029201810290017833PAGSG01A                    002.01                                                                                                                                                                                                                                                                                                                                                                                                                                                                      
1098765432120181018221051201810292001311101  21315F791ED143D48BD0C771C4C45C1C110367127           00000000050000000000001629M3 1 082018111800000000004580000000000000000000000545800000000000000000000000115000000000000000000000000000000000000000000000000488501  03VISA                          W 0003                                1186082389    4222002238009641                                                                                                                                                                           
1098765432120181018221051201810292001311201  21315F791ED143D48BD0C771C4C45C1C110367127           00000000050000000000001629M3 1 082018111800000000004580000000000000000000000545800000000000000000000000115000000000000000000000000000000000000000000000000488501  03VISA                          W 0003                                1186082389    4222002238009641                                                                                                                                                                           
1098765432120181018221051201810292001310501  21315F791ED143D48BD0C771C4C45C1C110367127           00000000050000000000001629M3 1 082018111800000000004580000000000000000000000545800000000000000000000000115000000000000000000000000000000000000000000000000488501  03VISA                          W 0003                                1186082389    4222002238009641                                                                                                                                                                           
1098765432120181018221051201810292001311101  21315F791ED143D48BD0C771C4C45C1C110367127           00000000050000000000001628M3 2 082018121800000000004580000000000000000000000545800000000000000000000000115000000000000000000000000000000000000000000000000488501  03VISA                          W 0003                                1186082389    4222002238009641                                                                                                                                                                           
1098765432120181018221051201810292001311201  21315F791ED143D48BD0C771C4C45C1C110367127           00000000050000000000001628M3 2 082018121800000000004580000000000000000000000545800000000000000000000000115000000000000000000000000000000000000000000000000488501  03VISA                          W 0003                                1186082389    4222002238009641                                                                                                                                                                           
1098765432120181018221051201810292001310501  21315F791ED143D48BD0C771C4C45C1C110367127           00000000050000000000001628M3 2 082018121800000000004580000000000000000000000545800000000000000000000000115000000000000000000000000000000000000000000000000488501  03VISA                          W 0003                                1186082389    4222002238009641                                                                                                                                                                           
1098765432120181018221051201810292001311101  21315F791ED143D48BD0C771C4C45C1C110367127           00000000050000000000001628M3 3 082019011800000000004580000000000000000000000545800000000000000000000000115000000000000000000000000000000000000000000000000488501  03VISA                          W 0003                                1186082389    4222002238009641                                                                                                                                                                           
1098765432120181018221051201810292001311201  21315F791ED143D48BD0C771C4C45C1C110367127           00000000050000000000001628M3 3 082019011800000000004580000000000000000000000545800000000000000000000000115000000000000000000000000000000000000000000000000488501  03VISA                          W 0003                                1186082389    4222002238009641                                                                                                                                                                           
1098765432120181018221051201810292001310501  21315F791ED143D48BD0C771C4C45C1C110367127           00000000050000000000001628M3 3 082019011800000000004580000000000000000000000545800000000000000000000000115000000000000000000000000000000000000000000000000488501  03VISA                          W 0003                                1186082389    4222002238009641                                                                                                                                                                           
900000000003                                                                                                                                                                                                                                                                                                                                                                                                                                                                                                                                      
