009876543212018091120180910201809100017784PAGSG01A                    002.01                                                                                                                                                                                                                                                                                                                                                                                                                                                                      
1098765432120180910094916201809101301311101  046EC2AB1D0F452595B6ABFD7057F3582739864             000000005990000000000138113 1 03201809102018091000000000591870000000000138000000001367304                                1067417851    5502095362NISXVO                                                                                                                                                                                                                                                                                          
1098765432120180910094916201809101300391101  046EC2AB1D0F452595B6ABFD7057F3582739864             000000005990000000000138103 2 03201809102018091000000000591870000000000282000000001352804                                1067417851    5502095362NISXVO                                                                                                                                                                                                                                                                                          
1098765432120180910094916201809101303381101  046EC2AB1D0F452595B6ABFD7057F3582739864             000000005990000000000138103 3 03201809102018091000000000591870000000000423000000001338704                                1067417851    5502095362NISXVO                                                                                                                                                                                                                                                                                          
900000000003                                                                                                                                                                                                                                                                                                                                                                                                                                                                                                                                      
