009876543212018091120180910201809100017784PAGSG01A                    002.01                                                                                                                                                                                                                                                                                                                                                                                                                                                                      
1098765432120180910094916201809100949240101  046EC2AB1D0F452595B6ABFD7057F3582739864             00000000599000000000013811M3 1 032018101000000000000000000000000000000000005990000000000000000000000000713000000000000000000000000000000000000000000000004143101  03MASTERCARD                    W 0003                                1067417851    5502095362NISXVO                                                                                                                                                                           
1098765432120180910094916201809100949240101  046EC2AB1D0F452595B6ABFD7057F3582739864             00000000599000000000013810M3 2 032018111000000000000000000000000000000000005990000000000000000000000000713000000000000000000000000000000000000000000000004143101  03MASTERCARD                    W 0003                                1067417851    5502095362NISXVO                                                                                                                                                                           
1098765432120180910094916201809100949240101  046EC2AB1D0F452595B6ABFD7057F3582739864             00000000599000000000013810M3 3 032018121000000000000000000000000000000000005990000000000000000000000000713000000000000000000000000000000000000000000000004143101  03MASTERCARD                    W 0003                                1067417851    5502095362NISXVO                                                                                                                                                                           
1012345678920180910094916201809100949300113  E32DB2B014374991A2A81F1EAA8654222739864             00000000177560000000005919M3 1 032018101000000000000000000000000000000000001775600000000000000000000000000000000000000000000000000000000000000000000000001775601  03MASTERCARD                    W 0003                                1067417851    5502095362NISXVO                                                                                                                                                                           
1012345678920180910094916201809100949300113  E32DB2B014374991A2A81F1EAA8654222739864             00000000177560000000005919M3 2 032018111000000000000000000000000000000000001775600000000000000000000000000000000000000000000000000000000000000000000000001775601  03MASTERCARD                    W 0003                                1067417851    5502095362NISXVO                                                                                                                                                                           
1012345678920180910094916201809100949300113  E32DB2B014374991A2A81F1EAA8654222739864             00000000177560000000005918M3 3 032018121000000000000000000000000000000000001775600000000000000000000000000000000000000000000000000000000000000000000000001775601  03MASTERCARD                    W 0003                                1067417851    5502095362NISXVO                                                                                                                                                                           
900000000006                                                                                                                                                                                                                                                                                                                                                                                                                                                                                                                                      
