009876543212018101320181012201810120017816PAGSG02A                    002.01                                                                                                                                                                                                                                                                                                                                                                                                                                                                      
1098765432120180917203617201810120215461001  6406516236A8410EB806EDB37A50A32A57575777            00000000249000000000024505U1 0 00201810120000000000000000000000000000000000249000000000000000000000000029500000000000000000000000100000000000000000000000245050000000000000000000000000003  02BOLETO                        W 0003000000                                                                                                                                                                                                         
1098765432120180917203617201810120215460601  6406516236A8410EB806EDB37A50A32A57575777            00000000249000000000024505U1 0 00201810120000000000000000000000000000000000249000000000000000000000000029500000000000000000000000100000000000000000000000245050000000000000000000000000003  02BOLETO                        W 0003000000                                                                                                                                                                                                         
1098765432120180917203617201810120215460601  6406516236A8410EB806EDB37A50A32A57575777            00000000249000000000000100U1 0 00201810120000000000000000000000000000000000249000000000000000000000000029500000000000000000000000100000000000000000000000245050000000000000000000000000003  02BOLETO                        W 0003000000                                                                                                                                                                                                         
900000000003                                                                                                                                                                                                                                                                                                                                                                                                                                                                                                                                      
