001234567892020090520200904202009040018509PAGSG02A                    002.01
1012345678920200903165746202009040100320101  9972328C26F2489AB049B85E7759250B975018              00000000039990000000003969U1 1 00202009040000000000000000000000000000000000039990000000000000000000000003000000000000000000000000000000000000000000000000039690000000000000000000000000003  08MAESTRO                       ME1201000000                                                         090347103668  6036899738866314975018                          6M064689
1012345678920200903171722202009040100320101  252709A75E2943C1AA962C5FCE98C15D487132              00000000079990000000007855U1 1 01202009040000000000000000000000000000000000079990000000000000000000000014400000000000000000000000000000000000000000000000078550000000000000000000000000003  03MASTERCARD                    ME1201000000                                                         090303703669  5460565295045254487132                          6M064689
1012345678920200903162523202009040103200101  772004C9776D4B0A8EAF0506E2DC28DB151115              00000000039960000000003966U1 1 00202009040000000000000000000000000000000000039960000000000000000000000003000000000000000000000000000000000000000000000000039660000000000000000000000000003  08VISA ELECTRON                 ME1201000000                                                         024719151115  4107154103053090151115                          6M064689
1012345678920200903160109202009040120550101  B4B84BB42CA344BD91D29DC5D2AD5F9C100470              00000000086890000000008533U1 1 01202009040000000000000000000000000000000000086890000000000000000000000015600000000000000000000000000000000000000000000000085330000000000000000000000000003  03MASTERCARD                    ME1201000000                                                         090353403666  5357984489284281100470                          6M064689
1012345678920200903155035202009040123080101  9DF27A07B89849D09DD9159E93804407476547              00000000209930000000020202U1 1 05202009040000000000000000000000000000000000209930000000000403000000000038800000000000000000000000000000000000000000000000202020000000000000000000000000003  03VISA                          ME1201000000                                                         024718476547  4984071366605639476547                          6M064689
1012345678920200903112139202009040128430101  1D5FBF8D98AF4A7A8C5E99C183E329AD236001              00000000039990000000003969U1 1 00202009040000000000000000000000000000000000039990000000000000000000000003000000000000000000000000000000000000000000000000039690000000000000000000000000003  08ELO                           ME1201000000                                                         51421236001   5067222281894485236001                          6M064689
1012345678920200903153837202009040132190101  6C4795E335EB452485524BD379F3CE283784                00000000079980000000007938U1 1 00202009040000000000000000000000000000000000079980000000000000000000000006000000000000000000000000000000000000000000000000079380000000000000000000000000003  08ELO                           ME1201000000                                                         51838003784   50672211607603533784                            6M064689
1012345678920200903180750202009040141320101  9ABB768F0D4D467E898F6A90D54D759C235000              00000000119980000000011782U1 1 01202009040000000000000000000000000000000000119980000000000000000000000021600000000000000000000000000000000000000000000000117820000000000000000000000000003  03ELO                           ME1201000000                                                         52107235000   5090639019803566235000                          6M064689
1012345678920200903105729202009040142580101  7BAB488763F44F5E825440A7DFEA178A378748              00000000079990000000007855U1 1 01202009040000000000000000000000000000000000079990000000000000000000000014400000000000000000000000000000000000000000000000078550000000000000000000000000003  03VISA                          ME1201000000                                                         024713378748  4440541760017015378748                          6M064689
1012345678920200903140253202009040204250101  77AB677AB49A4371A5F79D8734AC0704872335              00000000264800000000025482U1 1 05202009040000000000000000000000000000000000264800000000000508000000000049000000000000000000000000000000000000000000000000254820000000000000000000000000003  03MASTERCARD                    ME1201000000                                                         090372803663  5470434422043916872335                          6M064689
1012345678920200903125757202009040221080101  540B0F81D58343DB9EE38F9E8AA5A235999201              00000000069980000000006946U1 1 00202009040000000000000000000000000000000000069980000000000000000000000005200000000000000000000000000000000000000000000000069460000000000000000000000000003  08MAESTRO                       ME1201000000                                                         090340203661  5899163299262960999201                          6M064689
1012345678920200903125008202009040221530101  B6D8FD0140B34F86B3B415B7429C4A3F252870              00000000029990000000002977U1 1 00202009040000000000000000000000000000000000029990000000000000000000000002200000000000000000000000000000000000000000000000029770000000000000000000000000003  08VISA ELECTRON                 ME1201000000                                                         024715252870  4392670032128606252870                          6M064689
1012345678920200903130313202009040227400101  3180356B55704CF9BEC0AB3E5D52DCD0425698              00000000259930000000025798U1 1 00202009040000000000000000000000000000000000259930000000000000000000000019500000000000000000000000000000000000000000000000257980000000000000000000000000003  08VISA ELECTRON                 ME1201000000                                                         024716425698  4345055113118866425698                          6M064689
1012345678920200903184306202009040254260101  705E1A70083D4B778BA3890D2EFEBD8B878305              00000000079960000000007936U1 1 00202009040000000000000000000000000000000000079960000000000000000000000006000000000000000000000000000000000000000000000000079360000000000000000000000000003  08MAESTRO                       ME1201000000                                                         090366903671  6036898839703127878305                          6M064689
1012345678920200903201508202009040257300101  D53A131F25B7424A9DBAB900C1489B8388186               00000000019950000000001980U1 1 00202009040000000000000000000000000000000000019950000000000000000000000001500000000000000000000000000000000000000000000000019800000000000000000000000000003  08MAESTRO                       ME1201000000                                                         090332003673  589916547268296588186                           6M064689
1012345678920200903194642202009040319160101  3D4F5CF612844C91ADCD93B2548A4821606528              00000000079990000000007939U1 1 00202009040000000000000000000000000000000000079990000000000000000000000006000000000000000000000000000000000000000000000000079390000000000000000000000000003  08ELO                           ME1201000000                                                         52246606528   5090006207055152606528                          6M064689
2012345678920200904070000000000000
2012345678920200904080000000155127
900000000016
