009876543212018101020181009201810090017813PAGSG01A                    002.01                                                                                                                                                                                                                                                                                                                                                                                                                                                                      
1098765432120180922182045201810091525200601  4CF3D089C588488F87757CFB0891A099220143              00000000670420000000010946M6 1 062018102200000000000000000000000000000000014588200000000000000000000001368000000000000000000000000000000000000000000000006567401  03HIPERCARD                     TF1804T7160046354247C                 1105982160    6062828034066126721166682                       7101641709032918                                                                                                                           
1098765432120180922182045201810091525200601  4CF3D089C588488F87757CFB0891A099220143              00000000670420000000010946M6 2 062018112200000000000000000000000000000000014588200000000000000000000001368000000000000000000000000000000000000000000000006567401  03HIPERCARD                     TF1804T7160046354247C                 1105982160    6062828034066126721166682                       7101641709032918                                                                                                                           
1098765432120180922182045201810091525200601  4CF3D089C588488F87757CFB0891A099220143              00000000670420000000010946M6 3 062018122200000000000000000000000000000000014588200000000000000000000001368000000000000000000000000000000000000000000000006567401  03HIPERCARD                     TF1804T7160046354247C                 1105982160    6062828034066126721166682                       7101641709032918                                                                                                                           
1098765432120180922182045201810091525200601  4CF3D089C588488F87757CFB0891A099220143              00000000670420000000010946M6 4 062019012200000000000000000000000000000000014588200000000000000000000001368000000000000000000000000000000000000000000000006567401  03HIPERCARD                     TF1804T7160046354247C                 1105982160    6062828034066126721166682                       7101641709032918                                                                                                                           
1098765432120180922182045201810091525200601  4CF3D089C588488F87757CFB0891A099220143              00000000670420000000010945M6 5 062019022200000000000000000000000000000000014588200000000000000000000001368000000000000000000000000000000000000000000000006567401  03HIPERCARD                     TF1804T7160046354247C                 1105982160    6062828034066126721166682                       7101641709032918                                                                                                                           
1098765432120180922182045201810091525200601  4CF3D089C588488F87757CFB0891A099220143              00000000670420000000010945M6 6 062019032200000000000000000000000000000000014588200000000000000000000001368000000000000000000000000000000000000000000000006567401  03HIPERCARD                     TF1804T7160046354247C                 1105982160    6062828034066126721166682                       7101641709032918                                                                                                                           
900000000006                                                                                                                                                                                                                                                                                                                                                                                                                                                                                                                                      
