009876543212018101620181015201810150017819PAGSG01A                    002.01                                                                                                                                                                                                                                                                                                                                                                                                                                                                      
1098765432120180908231308201810151408301101  028B7D600627490486DCF5DEDACB8C10108143317           00000000200000000000009770M2 2 022018110800000000000000000000000000000000002000000000000000000000000000460000000000000000000000000000000000000000000000001954001  03HIPERCARD                     W 0003                                1064558607    6062826521072859                                                                                                                                                                           
1098765432120180908231308201810151408301201  028B7D600627490486DCF5DEDACB8C10108143317           00000000200000000000009770M2 2 022018110800000000000000000000000000000000002000000000000000000000000000460000000000000000000000000000000000000000000000001954001  03HIPERCARD                     W 0003                                1064558607    6062826521072859                                                                                                                                                                           
1098765432120180908231308201810151408300501  028B7D600627490486DCF5DEDACB8C10108143317           00000000200000000000009770M2 2 022018110800000000000000000000000000000000002000000000000000000000000000460000000000000000000000000000000000000000000000001954001  03HIPERCARD                     W 0003                                1064558607    6062826521072859                                                                                                                                                                           
900000000003                                                                                                                                                                                                                                                                                                                                                                                                                                                                                                                                      
