009876543212018080920180808201808080017751PAGSG01A                    002.01                                                                                                                                                                                                                                                                                                                                                                                                                                                                      
1098765432120180808183433201808081838500101  4B494E619E6F46ABBF530F8588E8207A119510              00000000999000000000013855M7 1 072018110800000000000000000000000000000000009990000000000000000000000002887000000000003000000000000000000000000000000000009698301  03MASTERCARD                    W 0003                                973615766     5447319243384473                                                                                                                                                                           
1098765432120180808183433201808081838500101  4B494E619E6F46ABBF530F8588E8207A119510              00000000999000000000013855M7 2 072018120800000000000000000000000000000000009990000000000000000000000002887000000000003000000000000000000000000000000000009698301  03MASTERCARD                    W 0003                                973615766     5447319243384473                                                                                                                                                                           
1098765432120180808183433201808081838500101  4B494E619E6F46ABBF530F8588E8207A119510              00000000999000000000013855M7 3 072018110800000000000000000000000000000000009990000000000000000000000002887000000000003000000000000000000000000000000000009698301  03MASTERCARD                    W 0003                                973615766     5447319243384473                                                                                                                                                                           
1098765432120180808183433201808081838500101  4B494E619E6F46ABBF530F8588E8207A119510              00000000999000000000013855M7 4 072018120800000000000000000000000000000000009990000000000000000000000002887000000000003000000000000000000000000000000000009698301  03MASTERCARD                    W 0003                                973615766     5447319243384473                                                                                                                                                                           
1098765432120180808183433201808081838500101  4B494E619E6F46ABBF530F8588E8207A119510              00000000999000000000013855M7 5 072019010800000000000000000000000000000000009990000000000000000000000002887000000000003000000000000000000000000000000000009698301  03MASTERCARD                    W 0003                                973615766     5447319243384473                                                                                                                                                                           
1098765432120180808183433201808081838500101  4B494E619E6F46ABBF530F8588E8207A119510              00000000999000000000013854M7 6 072019020800000000000000000000000000000000009990000000000000000000000002887000000000003000000000000000000000000000000000009698301  03MASTERCARD                    W 0003                                973615766     5447319243384473                                                                                                                                                                           
1098765432120180808183433201808081838500101  4B494E619E6F46ABBF530F8588E8207A119510              00000000999000000000013854M7 7 072019030800000000000000000000000000000000009990000000000000000000000002887000000000003000000000000000000000000000000000009698301  03MASTERCARD                    W 0003                                973615766     5447319243384473                                                                                                                                                                           
900000000007                                                                                                                                                                                                                                                                                                                                                                                                                                                                                                                                      
